{
  "contractName": "ProjectSubmission",
  "abi": [
    {
      "inputs": [],
      "payable": false,
      "stateMutability": "nonpayable",
      "type": "constructor"
    },
    {
      "constant": true,
      "inputs": [],
      "name": "owner",
      "outputs": [
        {
          "internalType": "address payable",
          "name": "",
          "type": "address"
        }
      ],
      "payable": false,
      "stateMutability": "view",
      "type": "function"
    },
    {
      "constant": true,
      "inputs": [],
      "name": "ownerBalance",
      "outputs": [
        {
          "internalType": "uint256",
          "name": "",
          "type": "uint256"
        }
      ],
      "payable": false,
      "stateMutability": "view",
      "type": "function"
    },
    {
      "constant": true,
      "inputs": [
        {
          "internalType": "bytes32",
          "name": "",
          "type": "bytes32"
        }
      ],
      "name": "projects",
      "outputs": [
        {
          "internalType": "address payable",
          "name": "author",
          "type": "address"
        },
        {
          "internalType": "address",
          "name": "university",
          "type": "address"
        },
        {
          "internalType": "enum ProjectSubmission.ProjectStatus",
          "name": "status",
          "type": "uint8"
        },
        {
          "internalType": "uint256",
          "name": "balance",
          "type": "uint256"
        }
      ],
      "payable": false,
      "stateMutability": "view",
      "type": "function"
    },
    {
      "constant": true,
      "inputs": [
        {
          "internalType": "address",
          "name": "",
          "type": "address"
        }
      ],
      "name": "universities",
      "outputs": [
        {
          "internalType": "bool",
          "name": "available",
          "type": "bool"
        },
        {
          "internalType": "address payable",
          "name": "accountAddress",
          "type": "address"
        },
        {
          "internalType": "uint256",
          "name": "balance",
          "type": "uint256"
        }
      ],
      "payable": false,
      "stateMutability": "view",
      "type": "function"
    },
    {
      "constant": false,
      "inputs": [
        {
          "internalType": "address payable",
          "name": "universityAddress",
          "type": "address"
        }
      ],
      "name": "registerUniversity",
      "outputs": [],
      "payable": false,
      "stateMutability": "nonpayable",
      "type": "function"
    },
    {
      "constant": false,
      "inputs": [
        {
          "internalType": "address",
          "name": "universityAddress",
          "type": "address"
        }
      ],
      "name": "disableUniversity",
      "outputs": [],
      "payable": false,
      "stateMutability": "nonpayable",
      "type": "function"
    },
    {
      "constant": false,
      "inputs": [
        {
          "internalType": "bytes32",
          "name": "documentHash",
          "type": "bytes32"
        },
        {
          "internalType": "address payable",
          "name": "universityAddress",
          "type": "address"
        }
      ],
      "name": "submitProject",
      "outputs": [],
      "payable": true,
      "stateMutability": "payable",
      "type": "function"
    },
    {
      "constant": false,
      "inputs": [
        {
          "internalType": "bytes32",
          "name": "documentHash",
          "type": "bytes32"
        }
      ],
      "name": "disableProject",
      "outputs": [],
      "payable": false,
      "stateMutability": "nonpayable",
      "type": "function"
    },
    {
      "constant": false,
      "inputs": [
        {
          "internalType": "bytes32",
          "name": "documentHash",
          "type": "bytes32"
        },
        {
          "internalType": "uint256",
          "name": "status",
          "type": "uint256"
        }
      ],
      "name": "reviewProject",
      "outputs": [],
      "payable": false,
      "stateMutability": "nonpayable",
      "type": "function"
    },
    {
      "constant": false,
      "inputs": [
        {
          "internalType": "bytes32",
          "name": "documentHash",
          "type": "bytes32"
        }
      ],
      "name": "donate",
      "outputs": [],
      "payable": true,
      "stateMutability": "payable",
      "type": "function"
    },
    {
      "constant": false,
      "inputs": [],
      "name": "withdraw",
      "outputs": [],
      "payable": false,
      "stateMutability": "nonpayable",
      "type": "function"
    },
    {
      "constant": false,
      "inputs": [
        {
          "internalType": "bytes32",
          "name": "documentHash",
          "type": "bytes32"
        }
      ],
      "name": "withdraw",
      "outputs": [],
      "payable": false,
      "stateMutability": "nonpayable",
      "type": "function"
    }
  ],
  "bytecode": "0x608060405234801561001057600080fd5b50336000806101000a81548173ffffffffffffffffffffffffffffffffffffffff021916908373ffffffffffffffffffffffffffffffffffffffff16021790555061151f806100606000396000f3fe6080604052600436106100a75760003560e01c80639dfb340c116100645780639dfb340c14610226578063b96ea12d14610277578063bedcf00314610341578063c37067fa1461036c578063c95826f81461039a578063f0995560146103e8576100a7565b806310d6ada1146100ac5780633ccfd60b146100fd5780637a99eca9146101145780638da5cb5b146101595780638e19899e146101b05780638ebd8196146101eb575b600080fd5b3480156100b857600080fd5b506100fb600480360360208110156100cf57600080fd5b81019080803573ffffffffffffffffffffffffffffffffffffffff16906020019092919050505061048b565b005b34801561010957600080fd5b506101126106ad565b005b34801561012057600080fd5b506101576004803603604081101561013757600080fd5b810190808035906020019092919080359060200190929190505050610839565b005b34801561016557600080fd5b5061016e610a2b565b604051808273ffffffffffffffffffffffffffffffffffffffff1673ffffffffffffffffffffffffffffffffffffffff16815260200191505060405180910390f35b3480156101bc57600080fd5b506101e9600480360360208110156101d357600080fd5b8101908080359060200190929190505050610a50565b005b3480156101f757600080fd5b506102246004803603602081101561020e57600080fd5b8101908080359060200190929190505050610ba9565b005b34801561023257600080fd5b506102756004803603602081101561024957600080fd5b81019080803573ffffffffffffffffffffffffffffffffffffffff169060200190929190505050610c89565b005b34801561028357600080fd5b506102b06004803603602081101561029a57600080fd5b8101908080359060200190929190505050610e12565b604051808573ffffffffffffffffffffffffffffffffffffffff1673ffffffffffffffffffffffffffffffffffffffff1681526020018473ffffffffffffffffffffffffffffffffffffffff1673ffffffffffffffffffffffffffffffffffffffff16815260200183600381111561032457fe5b60ff16815260200182815260200194505050505060405180910390f35b34801561034d57600080fd5b50610356610e8f565b6040518082815260200191505060405180910390f35b6103986004803603602081101561038257600080fd5b8101908080359060200190929190505050610e95565b005b6103e6600480360360408110156103b057600080fd5b8101908080359060200190929190803573ffffffffffffffffffffffffffffffffffffffff169060200190929190505050610ff4565b005b3480156103f457600080fd5b506104376004803603602081101561040b57600080fd5b81019080803573ffffffffffffffffffffffffffffffffffffffff16906020019092919050505061130b565b60405180841515151581526020018373ffffffffffffffffffffffffffffffffffffffff1673ffffffffffffffffffffffffffffffffffffffff168152602001828152602001935050505060405180910390f35b6000809054906101000a900473ffffffffffffffffffffffffffffffffffffffff1673ffffffffffffffffffffffffffffffffffffffff163373ffffffffffffffffffffffffffffffffffffffff1614610530576040517f08c379a000000000000000000000000000000000000000000000000000000000815260040180806020018281038252603c8152602001806113fb603c913960400191505060405180910390fd5b600073ffffffffffffffffffffffffffffffffffffffff168173ffffffffffffffffffffffffffffffffffffffff1614156105b6576040517f08c379a00000000000000000000000000000000000000000000000000000000081526004018080602001828103825260268152602001806114a06026913960400191505060405180910390fd5b6105be611362565b60405180606001604052806001151581526020018373ffffffffffffffffffffffffffffffffffffffff1681526020016000815250905080600160008473ffffffffffffffffffffffffffffffffffffffff1673ffffffffffffffffffffffffffffffffffffffff16815260200190815260200160002060008201518160000160006101000a81548160ff02191690831515021790555060208201518160000160016101000a81548173ffffffffffffffffffffffffffffffffffffffff021916908373ffffffffffffffffffffffffffffffffffffffff160217905550604082015181600101559050505050565b6000809054906101000a900473ffffffffffffffffffffffffffffffffffffffff1673ffffffffffffffffffffffffffffffffffffffff163373ffffffffffffffffffffffffffffffffffffffff161415610779576000809054906101000a900473ffffffffffffffffffffffffffffffffffffffff1673ffffffffffffffffffffffffffffffffffffffff166108fc6003549081150290604051600060405180830381858888f1935050505015801561076b573d6000803e3d6000fd5b506000600381905550610837565b6000600160003373ffffffffffffffffffffffffffffffffffffffff1673ffffffffffffffffffffffffffffffffffffffff16815260200190815260200160002090508060000160019054906101000a900473ffffffffffffffffffffffffffffffffffffffff1673ffffffffffffffffffffffffffffffffffffffff166108fc82600101549081150290604051600060405180830381858888f1935050505015801561082a573d6000803e3d6000fd5b5060008160010181905550505b565b6000809054906101000a900473ffffffffffffffffffffffffffffffffffffffff1673ffffffffffffffffffffffffffffffffffffffff163373ffffffffffffffffffffffffffffffffffffffff16146108de576040517f08c379a000000000000000000000000000000000000000000000000000000000815260040180806020018281038252603c8152602001806113fb603c913960400191505060405180910390fd5b6003808111156108ea57fe5b81111561095f576040517f08c379a00000000000000000000000000000000000000000000000000000000081526004018080602001828103825260148152602001807f537461747573206d7573742062652076616c696400000000000000000000000081525060200191505060405180910390fd5b60006002600084815260200190815260200160002090506000600381111561098357fe5b8160010160149054906101000a900460ff1660038111156109a057fe5b146109f6576040517f08c379a00000000000000000000000000000000000000000000000000000000081526004018080602001828103825260218152602001806114586021913960400191505060405180910390fd5b816003811115610a0257fe5b8160010160146101000a81548160ff02191690836003811115610a2157fe5b0217905550505050565b6000809054906101000a900473ffffffffffffffffffffffffffffffffffffffff1681565b60006002600083815260200190815260200160002090508060000160009054906101000a900473ffffffffffffffffffffffffffffffffffffffff1673ffffffffffffffffffffffffffffffffffffffff163373ffffffffffffffffffffffffffffffffffffffff1614610b2c576040517f08c379a00000000000000000000000000000000000000000000000000000000081526004018080602001828103825260208152602001807f4f6e6c792070726f6a65637420617574686f722063616e207472616e7366657281525060200191505060405180910390fd5b8060000160009054906101000a900473ffffffffffffffffffffffffffffffffffffffff1673ffffffffffffffffffffffffffffffffffffffff166108fc82600201549081150290604051600060405180830381858888f19350505050158015610b9a573d6000803e3d6000fd5b50600081600201819055505050565b6000809054906101000a900473ffffffffffffffffffffffffffffffffffffffff1673ffffffffffffffffffffffffffffffffffffffff163373ffffffffffffffffffffffffffffffffffffffff1614610c4e576040517f08c379a000000000000000000000000000000000000000000000000000000000815260040180806020018281038252603c8152602001806113fb603c913960400191505060405180910390fd5b60036002600083815260200190815260200160002060010160146101000a81548160ff02191690836003811115610c8157fe5b021790555050565b6000809054906101000a900473ffffffffffffffffffffffffffffffffffffffff1673ffffffffffffffffffffffffffffffffffffffff163373ffffffffffffffffffffffffffffffffffffffff1614610d2e576040517f08c379a000000000000000000000000000000000000000000000000000000000815260040180806020018281038252603c8152602001806113fb603c913960400191505060405180910390fd5b600073ffffffffffffffffffffffffffffffffffffffff168173ffffffffffffffffffffffffffffffffffffffff161415610db4576040517f08c379a00000000000000000000000000000000000000000000000000000000081526004018080602001828103825260218152602001806114376021913960400191505060405180910390fd5b6000600160008373ffffffffffffffffffffffffffffffffffffffff1673ffffffffffffffffffffffffffffffffffffffff16815260200190815260200160002060000160006101000a81548160ff02191690831515021790555050565b60026020528060005260406000206000915090508060000160009054906101000a900473ffffffffffffffffffffffffffffffffffffffff16908060010160009054906101000a900473ffffffffffffffffffffffffffffffffffffffff16908060010160149054906101000a900460ff16908060020154905084565b60035481565b600060026000838152602001908152602001600020905060026003811115610eb957fe5b8160010160149054906101000a900460ff166003811115610ed657fe5b14610f2c576040517f08c379a00000000000000000000000000000000000000000000000000000000081526004018080602001828103825260278152602001806114796027913960400191505060405180910390fd5b6000600a6007340281610f3b57fe5b0490506000600a6002340281610f4d57fe5b0490506000818303905082846002016000828254019250508190555081600160008660010160009054906101000a900473ffffffffffffffffffffffffffffffffffffffff1673ffffffffffffffffffffffffffffffffffffffff1673ffffffffffffffffffffffffffffffffffffffff16815260200190815260200160002060010160008282540192505081905550806003600082825401925050819055505050505050565b600073ffffffffffffffffffffffffffffffffffffffff168173ffffffffffffffffffffffffffffffffffffffff161415611097576040517f08c379a000000000000000000000000000000000000000000000000000000000815260040180806020018281038252601f8152602001807f756e697665727369747941646472657373206d7573742062652076616c69640081525060200191505060405180910390fd5b600160008273ffffffffffffffffffffffffffffffffffffffff1673ffffffffffffffffffffffffffffffffffffffff16815260200190815260200160002060000160009054906101000a900460ff1661113c576040517f08c379a00000000000000000000000000000000000000000000000000000000081526004018080602001828103825260258152602001806114c66025913960400191505060405180910390fd5b670de0b6b3a76400003410156111ba576040517f08c379a000000000000000000000000000000000000000000000000000000000815260040180806020018281038252601f8152602001807f43616c6c6572206d7573742073656e64206174206c656173742031204554480081525060200191505060405180910390fd5b6111c261139b565b60405180608001604052803373ffffffffffffffffffffffffffffffffffffffff1681526020018373ffffffffffffffffffffffffffffffffffffffff1681526020016000600381111561121257fe5b815260200160008152509050806002600085815260200190815260200160002060008201518160000160006101000a81548173ffffffffffffffffffffffffffffffffffffffff021916908373ffffffffffffffffffffffffffffffffffffffff16021790555060208201518160010160006101000a81548173ffffffffffffffffffffffffffffffffffffffff021916908373ffffffffffffffffffffffffffffffffffffffff16021790555060408201518160010160146101000a81548160ff021916908360038111156112e457fe5b02179055506060820151816002015590505034600360008282540192505081905550505050565b60016020528060005260406000206000915090508060000160009054906101000a900460ff16908060000160019054906101000a900473ffffffffffffffffffffffffffffffffffffffff16908060010154905083565b6040518060600160405280600015158152602001600073ffffffffffffffffffffffffffffffffffffffff168152602001600081525090565b6040518060800160405280600073ffffffffffffffffffffffffffffffffffffffff168152602001600073ffffffffffffffffffffffffffffffffffffffff168152602001600060038111156113ed57fe5b815260200160008152509056fe4f6e6c792074686520436f6e7472616374204f776e657220697320617574686f72697a656420746f20706572666f726d207468697320616374696f6e4d75737420696e636c75646520612076616c696420756e6976657273697479496443616e206f6e6c7920617070726f76652057616974696e672070726f6a6563747350726f6a656374206d7573742068617665206265656e20616c726561647920617070726f766564556e6976657273697479206d75737420686176652061206465706f736974206164647265737353656c656374656420556e6976657273697479206d75737420626520617661696c61626c65a265627a7a723158208636e79dfa8b534dda08f60b7a2b995d0488dd74fa446f5aa7bccee717b6ec9d64736f6c634300050d0032",
  "source": "pragma solidity ^0.5.0;\r\n\r\ncontract ProjectSubmission {\r\n    // STEP 1\r\n    address payable public owner;\r\n\r\n    constructor() public {\r\n      owner = msg.sender;\r\n    }\r\n\r\n    modifier onlyOwner() {\r\n      require(msg.sender == owner, 'Only the Contract Owner is authorized to perform this action');\r\n      _;\r\n    }\r\n\r\n    struct University {\r\n      bool available;\r\n      address payable accountAddress;\r\n      uint256 balance;\r\n    }\r\n\r\n    mapping (address => University) public universities;\r\n\r\n    function registerUniversity(address payable universityAddress) public onlyOwner {\r\n        require(universityAddress != address(0), 'University must have a deposit address');\r\n\r\n        University memory newUniversity = University(true, universityAddress, 0);\r\n\r\n        universities[universityAddress] = newUniversity;\r\n    }\r\n\r\n    function disableUniversity(address universityAddress) public onlyOwner {\r\n        require(universityAddress != address(0), 'Must include a valid universityId');\r\n        universities[universityAddress].available = false;\r\n    }\r\n\r\n    // STEP 2\r\n\r\n    enum ProjectStatus { Waiting, Rejected, Approved, Disabled }\r\n\r\n    struct Project {\r\n        address payable author;\r\n        address university;\r\n        ProjectStatus status;\r\n        uint256 balance;\r\n    }\r\n\r\n    mapping (bytes32 => Project) public projects;\r\n\r\n    function submitProject(bytes32 documentHash, address payable universityAddress)\r\n    public payable {\r\n        require(universityAddress != address(0), 'universityAddress must be valid');\r\n        require(universities[universityAddress].available, 'Selected University must be available');\r\n        require(msg.value >= 1 ether, \"Caller must send at least 1 ETH\");\r\n\r\n        Project memory newProject = Project(msg.sender, universityAddress, ProjectStatus.Waiting, 0);\r\n        projects[documentHash] = newProject;\r\n\r\n        ownerBalance += msg.value;\r\n    }\r\n\r\n    // STEP 3\r\n\r\n    function disableProject(bytes32 documentHash) public onlyOwner {\r\n        projects[documentHash].status = ProjectStatus.Disabled;\r\n    }\r\n\r\n    function reviewProject(bytes32 documentHash, uint status) public onlyOwner {\r\n        require(status <= uint(ProjectStatus.Disabled), \"Status must be valid\");\r\n        Project storage project = projects[documentHash];\r\n        require(project.status == ProjectStatus.Waiting, \"Can only approve Waiting projects\");\r\n        project.status = ProjectStatus(status);\r\n    }\r\n\r\n    // STEP 4\r\n\r\n    uint public ownerBalance;\r\n\r\n    function donate(bytes32 documentHash) public payable {\r\n        Project storage project = projects[documentHash];\r\n        require(project.status == ProjectStatus.Approved, \"Project must have been already approved\");\r\n\r\n        uint256 valueToProject = msg.value * 7 / 10;\r\n        uint256 valueToUniversity = msg.value * 2 / 10;\r\n        uint256 valueToOwner = valueToProject - valueToUniversity;\r\n\r\n        project.balance += valueToProject;\r\n        universities[project.university].balance += valueToUniversity;\r\n        ownerBalance += valueToOwner;\r\n    }\r\n\r\n    // STEP 5\r\n\r\n    function withdraw() public {\r\n        if (msg.sender == owner) {\r\n            owner.transfer(ownerBalance);\r\n            ownerBalance = 0;\r\n        } else {\r\n            University storage university = universities[msg.sender];\r\n            university.accountAddress.transfer(university.balance);\r\n            university.balance = 0;\r\n        }\r\n    }\r\n\r\n    function withdraw(bytes32 documentHash) public {\r\n        Project storage project = projects[documentHash];\r\n        require(msg.sender == project.author, \"Only project author can transfer\");\r\n        project.author.transfer(project.balance);\r\n        project.balance = 0;\r\n    }\r\n}",
  "sourcePath": "/mnt/c/Users/zubie/git/project-submission-zubietaroberto/contracts/ProjectSubmission.sol",
  "compiler": {
    "name": "solc",
    "version": "0.5.13+commit.5b0b510c.Emscripten.clang"
  },
  "schemaVersion": "3.0.19",
  "updatedAt": "2019-12-03T21:56:15.112Z",
  "devdoc": {
    "methods": {}
  },
  "userdoc": {
    "methods": {}
  }
}